:020000040800F2
:10000000D0060020E501000807140008F7130008D7
:10001000031400081B120008911D000800000000D6
:100020000000000000000000000000002918000887
:100030003512000800000000BB1400081519000864
:10004000951D0008B9140008791900081F18000848
:100050004512000871170008371200083B1200080B
:100060003D1200083F120008411200081F1200084C
:100070002112000823120008251200082712000888
:10008000291200082B12000817120008FF010008AF
:10009000FF010008FF010008FF01000843120008EB
:1000A0007B190008811900087F1900087D190008D4
:1000B000831900088519000887190008FD13000836
:1000C000FB13000801140008FF13000823180008A0
:1000D00025180008391A0008CD1A0008451B000829
:1000E000391200081D1800088F1D00088F1900081C
:1000F00095190008931900089119000819120008B1
:100100007D12000821180008891900082718000826
:1001100097190008991900088B1900088D19000813
:100120002D1200082F1200083112000833120008A7
:1001300000F002F800F047F80AA090E8000C8244B2
:100140008344AAF10107DA4501D100F03CF8AFF28F
:10015000090EBAE80F0013F0010F18BFFB1A43F0A5
:1001600001031847E82A0000082B0000103A24BFBA
:1001700078C878C1FAD8520724BF30C830C144BF0C
:1001800004680C607047000000230024002500264E
:10019000103A28BF78C1FBD8520728BF30C148BFEA
:1001A0000B607047662902F0D784002070471FB5A6
:1001B00000F0F0FA04000020002102F00FF8E060E7
:1001C0001FBD10B510BD00F0FDFB1146FFF7EFFF9E
:1001D00001F04CFE00F01BFC03B4FFF7F2FF03BC80
:1001E00001F0F4FD0948804709480047FEE7FEE7B3
:1001F000FEE7FEE7FEE7FEE7FEE7FEE7FEE7FEE7D7
:1002000004480549054A064B7047000019190008C3
:1002100031010008D0000020D0060020D0020020CC
:10022000D0020020704700000FB4044910B503AAA3
:10023000029800F09DFA10BC5DF814FB200000202D
:100240002DE9F0474FF0000A89460446C0F820A087
:100250002046E1688847002876D0252806D0D4E9D2
:1002600001219047206A401C2062F1E7E1682046A6
:1002700000258847C4F81CA006460027C4F818A02B
:100280002A2E09D0304601F09AFD38B304EB8708D6
:10029000303EC8F8186019E059F8041B204604EBFA
:1002A00087029161E1688847012F064618D1E0690D
:1002B000002820DA25F020051DE0D8F8180000EB12
:1002C000800006EB40003038C8F818002046E1688E
:1002D0008847064601F073FD0028EED1012F0AD0B1
:1002E0002E2E08D12046E16888477F1C0646022F43
:1002F00045F02005C4DBA069002803DA404245F040
:100300000105A061E80701D025F01005B6B1A6F1FE
:100310004100192802D8203645F400654A46314686
:10032000204625604D46FFF73DFF58B1012806D015
:10033000ED1D25F0070000F1080989E704E005F14B
:10034000040985E730468AE7206ABDE8F0877047F0
:1003500070477047704770472DE9FF4F0C461E46A7
:100360004FF0FF378BB0D2E90001DDF860800A90D2
:100370008A46C1F30A5505B93D46002108464FF0AB
:100380000000BAF1000F00F4400005DA00EB800035
:100390004FF4400101EA50004FEA9059B9F1010FC2
:1003A00000DDB9460A9850EA4A000ED044F61050D3
:1003B000A5F2FF3545432F14B8F1000F1ED075424A
:1003C000291E1EDDC9F100021CE0B8F1010F4FF03B
:1003D000000001D0302103E0F24305E02154401C2D
:1003E000B042FBDB30460022002121540B99C1F8BA
:1003F0000880C1E900200FB0BDE8F08FBD1B6D1C67
:10040000DEE74A4600DA694206A800F065FA06AB64
:1004100093E8070003AB83E8070050460A9900F011
:100420003FFB8DE80700A0F500501F3800900398AF
:10043000002D09DD42F21F014A46084403A903903A
:10044000684600F09EFD08E0A0F500504A461F38BF
:1004500003A90390684600F0A8FD8DE8070000049A
:10046000000C03D04FF0FF30410800E01046B8F117
:10047000000F03D00022009215461EE0751E05D421
:1004800000F08CF9303262556D1EF9D5B346012269
:10049000084302D000227F1C04E02078302801D1DC
:1004A00000227F1E002A099786D01DE0112D07DA51
:1004B00000F074F9303262556D1C50EA0102F5D13A
:1004C000084302D00098C8B10EE00021681E05E084
:1004D000235C625C63542254401E491C8142F7DB5A
:1004E000AB46A81B401E0990002004F80B000B9897
:1004F000099AC0F80880C0E9002B7CE711264FF06C
:10050000000859E72DE9F04F88460446D21D22F035
:10051000070191B0D1E90001CDE90A0101F03BFCEE
:1005200002460B98C00F01D02D2007E020688107FC
:1005300001D52B2002E0202101EAC000032A099006
:1005400001D0072A05DB03464146204600F084F926
:100550000BE12078800601D5E06900E00620B8F1C3
:10056000650F814606D0B8F1660F18D0B8F1670F55
:1005700070D131E00020B9F1110F009001DB11239F
:1005800001E009F101030AAA01A90CA8FFF7E4FEA2
:10059000DDE90C70002609F10105834647E00120E2
:1005A0004B4600904FF000470AAA01A90CA8FFF79C
:1005B000D3FEDDE90DB00C995D46002610B909F1B6
:1005C00001000D18B9EB050003D4C0F1FF3609F1A5
:1005D0000105A5EB09002BE0B9F1010F01DA4FF09D
:1005E00001090020B9F1110F0090484601DD1123E7
:1005F00000E003460AAA01A90CA8FFF7ADFEDDE959
:100600000C704D4600268346207800070AD4AB457F
:1006100000DA5D4601A8012D04DD411911F8011C25
:10062000302907D04F4502DA17F1040F04DA012010
:1006300082460FE06D1EEEE7002F02DCED1B3E440C
:1006400003E0781CA84200DD7D1CB81B00F1010A04
:100650004FF000472078000703D4AA4501DB4FF094
:10066000FF3A0021B7F1004F0DF143088DF8431018
:1006700024D002202B23002F01DA7F422D230A21D0
:10068000021EA0F1010000DC5FB197FBF1FC97FBBB
:10069000F1F201FB1C7C17460CF1300C08F801CD7F
:1006A000EEE7A8F1010003702188090501D5452175
:1006B00000E06521A0F1010800F8011C09980FA9CC
:1006C000A1EB0807FF1D00B10120411901EBEA7001
:1006D000A1693844081A401EA0612078C00602D4DF
:1006E0002046AFF30080099828B1D4E90121904752
:1006F000206A401C20622078C00622D52046AFF335
:1007000000801EE0002E04DBB34502DD01A8805D01
:1007100000E03020D4E901219047206A401C20628B
:10072000761CAAF101005FEA000A0AD100F032F853
:10073000C0680168405CD4E901219047206A401CF0
:100740002062281EA5F10105DCDC07E0D4E90121C7
:1007500018F8010B9047206A401C2062381EA7F150
:100760000107F3DC2046AFF30080032011B043E61D
:10077000074B70B50D467B4400F05BF804462846F5
:1007800000F018F910B14FF0FF3070BD204670BD79
:10079000D7160000004870478C00002030B5B0F13B
:1007A0000A024FEA900E71F100034EEA817EB0EB2F
:1007B0000E0061EB91014FEA101E4EEA017E10EB34
:1007C0000E0041EB11114FEA102E4EEA016E10EBB4
:1007D0000E0041EB11214FEA104E4EEA014E10EB94
:1007E0000E0041EB1141401841F100014FEAD000E9
:1007F00040EA41704FEAD10110EB80054FEA8104D5
:1008000044EA907444EB01046D1944EB0404521B58
:10081000A3414FF0000348BF0A3200D530BD401C51
:1008200041F1000130BD000001694A1C02610878F5
:10083000704700B58FB0CDE9013100210591054920
:100840007944CDE9031011466846FFF7F9FC0FB073
:1008500000BD0000E5FFFFFF2DE9F0411F46044603
:1008600003260168072A01F4006004DB08B116A51D
:1008700005E016A503E008B115A500E015A521F0D7
:1008800010002060A069C01EA0610FB1401EA061D1
:100890002046AFF300804FB1D4E90121384690479C
:1008A000206A401C2062C01C206206E0206AFAE731
:1008B000D4E9012115F8010B9047761EF8D22046A5
:1008C000AFF30080BDE8F0814E414E006E616E00D6
:1008D000494E4600696E66002DE9F047814616468E
:1008E0008AB0334878440DC88DE80D00304878440C
:1008F000801C03AC0DC884E80D0041F69B30084411
:10090000372190FBF1F290FBF1F5A5F1800501FB99
:1009100012041B3C02D56442012000E00020DFF8F5
:1009200090A080460027FA44AAF1BE0A0DE0E00735
:1009300009D03246684607EB47010AEB810100F017
:1009400034FB8DE8070064107F1C002CEFD1184F9A
:100950007F44AC3F18E0E80714D007EB04100DF11A
:10096000180A90E80E008AE80E00C068F04201D133
:1009700098190890324606A903A800F016FB03ABAD
:1009800083E807006D10641C002DE4D132466946EF
:10099000B8F1000F03A802D000F0F3FA01E000F074
:1009A00004FBC9E90001C9F808200AB0BDE8F087D6
:1009B000F0220000007B00F0800070470048704784
:1009C0006C0000207546FFF7F9FFAE46050069464A
:1009D000534620F00700854618B020B5FFF710FCFD
:1009E000BDE820404FF000064FF000074FF0000830
:1009F0004FF0000B21F00701AC46ACE8C009ACE8B1
:100A0000C009ACE8C009ACE8C0098D46704710B514
:100A10000446AFF300802046BDE81040FFF7DCBB82
:100A20004FF0013C50F8042B51F8043B9A4221D17D
:100A3000A2EB0C03934313EACC1317D150F8042B09
:100A400051F8043B9A4215D1A2EB0C03934313EAED
:100A5000CC130BD150F8042B51F8043B9A4209D126
:100A6000A2EB0C03934313EACC13DBD04FF000004E
:100A7000704700BFD01A01BAB1FA81F101F0180134
:100A800022FA01F0CB40C1F12001DBB2C0B2C01AA2
:100A90002CFA01F3D11A914311EAC311E6D1704740
:100AA0005FEA400C08BF91F0000F4FEA8C234FEA39
:100AB000C12243EA51514FEA1C5018BF00F5F040E3
:100AC0004FEA300018BF41F000415FEA6C5C00F073
:100AD0002980BCF1FF3F08BF40F080407047130CF5
:100AE00006BF12044FF0100C4FF0000C130E04BFA1
:100AF00012020CF1080C130F04BF12010CF1040CCC
:100B0000930F04BF92000CF1020CD30F04BF5200EC
:100B10000CF1010C11464FF00002A0F11F00A0EBF8
:100B20000C00704711F0004F08BF704731F00041D2
:100B30003FF4D5AF0B0C06BF09044FF0100C4FF07B
:100B4000000C0B0E04BF09020CF1080C0B0F04BFC4
:100B500009010CF1040C8B0F04BF89000CF1020C8D
:100B6000CB0F04BF49000CF1010CCCF12003A0EB2A
:100B70000C0022FA03F302FA0CF241EA030100F13D
:100B80000100704720F07F4C80EA030023F07F478C
:100B9000ACEB070303F57C5300F0004003F1FF03C7
:100BA0002DE980494FEA154B09B44FEA144325EA71
:100BB0000B4E24EA03480FF2042606EB13274908DC
:100BC0003E785FEA320203FB0667C7F5000707FBC2
:100BD00006F64FEA54374FEAD64606F1020607FBFF
:100BE000066CCCF1005C4FEA1C472CEA074C07FB73
:100BF00006F40CFB06F504EB15464FEA961634BFD7
:100C000000204FF000404FEAD13706FB07FC4FEAC7
:100C10001C4C0CFB0BF7D21B03FB0CF761EB070121
:100C20000CFB0EF7B0EB074072EB17420CFB08F71A
:100C300034BFA2EB0742B2EB074261EB17414FEA28
:100C40000C444FEA910706FB07FC4FEA1C4C0CFBD7
:100C50000BF7B0EBC74072EB573203FB0CF734BF16
:100C6000A2EBC742B2EBC74261EB57310CFB0EF768
:100C7000B0EBC70072EB57720CFB08F734BFA2EB66
:100C8000C702B2EBC70261EB5771039F4FEA816164
:100C900041EA921104EBCC044FEAD1374FEA826269
:100CA00006FB07FC42EA90124FEA80604FEA1C4CB8
:100CB0000CFB0BF7D21B03FB0CF761EB07010CFBE2
:100CC0000EF7B0EB074072EB17420CFB08F734BF8E
:100CD000A2EB0742B2EB074261EB17414FEA8C559A
:100CE0004FEA910704EB9C2406FB07FC4FEA1C4CDF
:100CF0000CFB0BF7B0EBC74072EB573203FB0CF762
:100D000034BFA2EBC742B2EBC74261EB57310CFBD9
:100D10000EF7B0EBC70072EB57720CFB08F734BF4D
:100D2000A2EBC702B2EBC70261EB577115EB4C2582
:100D30004FEA816141EA92114FEA82624FEAD1376C
:100D400042EA901206FB07FC44F100044FEA80607F
:100D50004FEA1C4C0CFB0BF7D21B03FB0CF761EBAF
:100D600007010CFB0EF7B0EB074072EB17420CFBD0
:100D700008F734BFA2EB0742B2EB074261EB174121
:100D800015EB1C154FEA813141EA92414FEA82325C
:100D900042EA90424FEA80304FEA0C7644F1000478
:100DA00048EA03434EEA0B484FF0000EB2EB080C42
:100DB00071EB030724BF624639464EEB0E0E4FF02F
:100DC000000B0018524149414BEB0B0BB2EB080CE6
:100DD00071EB03077BF1000B24BF624639464EEBF3
:100DE0000E0E4FF0000B0018524149414BEB0B0B1C
:100DF000B2EB080C71EB03077BF1000B24BF6246DA
:100E000039464EEB0E0E51EA020718BF46F00106B6
:100E100016EB0E7655F1000254F1000103D5BDE842
:100E20008901BDE80088BDE88901BDE80048B61920
:100E3000524141EB0101A3F10103704780807F7EA5
:100E40007D7C7B7A79787776767574737271717040
:100E50006F6E6E6D6C6C6B6A6A69686867666665F2
:100E60006464636362616160605F5F5E5E5D5D5C80
:100E70005C5B5B5A5A5959585857575656555555F1
:100E80005454535352525251515050504F4F4F4E51
:100E90004E4D4D4D4C4C4C4B4B4B4A4A4A4949499F
:100EA00048484847474747464646454545444444E1
:100EB000444343434342424242414141002B26D4F2
:100EC000770021D01CB54FEA370703B44FF010006C
:100ED0004FF010014FF000000FBCBDE810400BF1C7
:100EE000010BBBF1010F08BF5FEA170722BF12F128
:100EF000010211F101014FF0004143F1000300F044
:100F0000004043EA00007047F9D35708DAE746EAA1
:100F1000064613F1400F4FEA16461FDD13F1200F6E
:100F2000DFBF16430A46002120335B42C8D0C3F11D
:100F3000200746EA064602FA07F74FEA164646EA4F
:100F40000706C3F1200722FA03F201FA07F721FA94
:100F500003F14FF0000342EA0702B1E746EA020656
:100F600046EA06464FEA164646EA0106BCBF46EA8E
:100F70000646360C4FF000034FF000024FF0000120
:100F80009EE72DE9C048934630B491E8380007C881
:100F900031EA400C48BF34EA430C03D5FFF7F2FDB9
:100FA000FFF78CFFF0BCBDE800882DE9C0489346F0
:100FB00030B491E8380007C810F0804F08BF13F034
:100FC000804F03D100F005F8FFF778FFF0BCBDE8D3
:100FD000008820F07F4780EA030023F07F4C07EB76
:100FE0000C03A3F57C5300F00040A3F1FE0392F044
:100FF000000F00F0B38095F0000F00F077802DE92E
:1010000001494FEA11404FEA144621EA004800FB2B
:1010100006FC24EA064708FB06F607FB08F800FB77
:1010200007F718EB06484CEB164C4FEA124B18EB3F
:1010300007484FEA15464CEB174022EA0B4E0BFBD4
:1010400006FC25EA06470EFB06F607FB0EFE0BFB29
:1010500007F71EEB064E4CEB164C4FF000061EEB4E
:10106000074E4CEB174B18EB0B0840F1000018EB48
:101070000E0B58EB000840F100008F1A4FF00001F2
:101080003CBFC943661B14BFB5EB040C00213CBF39
:10109000C943F61B4FEA17444EEA8E0E27EA044571
:1010A0004FEA1C4704FB07622CEA074C05FB07F7D5
:1010B0000CFB05F604FB0CFC16EB074642EB174253
:1010C00016EB0C4642EB1C421BEB060658EB0202E9
:1010D000414146EA9E0601D5BDE80189B619524153
:1010E00041EB0101A3F10103BDE801894FEA144579
:1010F0004FEA114724EA054621EA074C05FB07F4AD
:1011000006FB07F70CFB06F105FB0CFC11EB074196
:1011100044EB17444FEA124711EB0C4144EB1C44DB
:1011200022EA074C05FB07F206FB07F70CFB06F665
:1011300005FB0CFC16EB074642EB174216EB0C4680
:1011400042EB1C456A1854F1000148BF7047B619BC
:10115000524141EB0101A3F10103704795F0000FEB
:1011600037D04FEA11424FEA144721EA024624EAF7
:10117000074C02FB07F106FB07F70CFB06F402FB2A
:101180000CFC14EB074441EB17414FEA154714EBF5
:101190000C4441EB1C4125EA074C02FB07F506FB1A
:1011A00007F70CFB06F602FB0CFC16EB074645EBBB
:1011B000174516EB0C4645EB1C42121951F1000184
:1011C00048BF7047B619524141EB0101A3F1010339
:1011D00070474FEA14454FEA114724EA054621EAD1
:1011E000074C05FB07F106FB07F70CFB06F24FF077
:1011F000000605FB0CFC12EB074241EB174112EB1A
:101200000C4251EB1C4148BF7047921841EB010161
:10121000A3F1010370477047704700BFFEE77047B6
:101220007047704770477047704770477047704706
:1012300070477047704770477047704770477047F6
:1012400070477047704700000549096821F0100198
:10125000034A11601146096801431160704700009C
:101260000020024001460020034A106800F03800C8
:1012700008431060704700000020024070470000E3
:1012800008B50121082000F039F90121202000F0E3
:1012900035F90F20ADF8000010208DF80300032071
:1012A0008DF8020069460B4800F018F847F201017A
:1012B000094800F09EF84FF4E040ADF8000010201F
:1012C0008DF8030002208DF802006946024800F004
:1012D00005F808BD00140140000C01402DE9F04163
:1012E000024600250026002000230024002791F854
:1012F00003C00CF00F0591F803C00CF0100CBCF10A
:10130000000F03D091F802C04CEA050591F800C027
:10131000BCF1000F31D0146800202BE04FF0010C1D
:101320000CFA00F3B1F800C00CEA03069E4220D18B
:1013300083004FF00F0C0CFA03F7BC4305FA03FCD3
:101340004CEA040491F803C0BCF1280F06D14FF019
:10135000010C0CFA00FCC2F814C00AE091F803C0BA
:10136000BCF1480F05D14FF0010C0CFA00FCC2F89B
:1013700010C0401C0828D1D31460B1F800C0BCF1E3
:10138000FF0F34DD546800202EE000F1080C4FF010
:10139000010808FA0CF3B1F800C00CEA03069E42FB
:1013A00021D183004FF00F0C0CFA03F7BC4305FA70
:1013B00003FC4CEA040491F803C0BCF1280F05D1EA
:1013C00000F1080C08FA0CF8C2F8148091F803C078
:1013D000BCF1480F07D100F1080C4FF0010808FAE2
:1013E0000CF8C2F81080401C0828CED35460BDE829
:1013F000F0810161704700BFFEE77047704770479A
:10140000704700BFFEE7704708B54FF4A06000F0DA
:1014100049F826208DF8000001208DF801000220F7
:101420008DF8020001208DF80300684600F002F8F4
:1014300008BD000070B5002100230F22C47804B35A
:10144000154C246804F4E064C4F5E064210AC1F199
:101450000403CA40447804FA03F184781440214319
:1014600009010E4C0678A155047804F01F050124EB
:10147000AC4005786D11AD0005F1E025C5F80041DF
:1014800009E0047804F01F050124AC40044D0678FF
:10149000761145F8264070BD0CED00E000E400E058
:1014A00080E100E002490143024A116070470000F8
:1014B0000000FA050CED00E07047704729B1064ABC
:1014C000D2690243044BDA6104E0034AD2698243E1
:1014D000014BDA61704700000010024029B1064A52
:1014E00012690243044B1A6104E0034A1269824301
:1014F000014B1A61704700000010024029B1064AF2
:1015000092690243044B9A6104E0034A9269824360
:10151000014B9A61704700000010024029B1064A51
:10152000D2680243044BDA6004E0034AD268824383
:10153000014BDA60704700000010024010B500F067
:101540002FF84FF4803000F0EDF800F04BF904462E
:10155000012C24D11020FFF777FE0220FFF782FE36
:10156000002000F0D3F8002000F010F9A00200F0F5
:1015700001F94FF4E011200400F01AF9012000F005
:1015800011F900BF392000F09BF80028FAD00220A2
:1015900000F01CF900BF00F0B1F80828FBD110BD25
:1015A0000F48006840F001000D4908600846406897
:1015B0000C4908400A494860084600680A49084042
:1015C000074908600846006820F480200860084643
:1015D000406820F4FE0048604FF41F0088607047A8
:1015E000001002400000FFF8FFFFF6FE30B50021BA
:1015F0000022002400232D4D6D6805F00C0121B15F
:10160000042905D0082923D105E0294D056022E0F1
:10161000274D05601FE0254D6D6805F47012234DC0
:101620006D6805F48034022505EB92421CB9214D0A
:10163000554305600BE01D4D6D6805F400351DB187
:101640001C4D5543056002E0194D5543056002E00D
:10165000174D056000BF00BF144D6D6805F0F00127
:101660000909154D6B5C0568DD4045600F4D6D68DF
:1016700005F4E061090A104D6B5C4568DD4085604A
:101680000A4D6D6805F46051C90A0B4D6B5C4568E5
:10169000DD40C560054D6D6805F44041890B074D7F
:1016A0006B5CC568B5FBF3F5056130BD0010024009
:1016B00000127A0000093D000800002018000020F8
:1016C00010B501460022002300204A11012A02D150
:1016D000094C236806E0022A02D1074C236A01E084
:1016E000054C636A01F01F02012494401C400CB1B8
:1016F000012000E0002010BD0010024002484068B8
:1017000000F00C007047000000100240014600206D
:10171000034A506820F0F000084350607047000012
:10172000001002401149096821F480310F4A11600C
:101730001146096821F480211160B0F5803F03D083
:10174000B0F5802F0ED106E00849096841F48031D8
:10175000064A116007E00549096841F4A021034ADF
:10176000116000E000BF00BF7047000000100240A1
:101770007047000001460020034A506820F4E060F2
:1017800008435060704700000010024001460020EE
:10179000034A506820F4605040EAC100506070472E
:1017A00000100240014908667047000000004242F4
:1017B00002460020044B586820F47C1042EA0103E2
:1017C0001843014B5860704700100240014600204A
:1017D000034A506820F0030008435060704700003F
:1017E0000010024038B5002000900024002500BF02
:1017F0003120FFF765FF05460098401C00900098D7
:10180000B0F5A06F01D0002DF2D03120FFF758FFC6
:1018100008B1012400E00024204638BD704770471D
:101820007047704770477047704710B500F002F876
:1018300010BD00000CB500200190009033480068F6
:1018400040F480303149086000BF3048006800F43F
:10185000003000900198401C0190009818B9019840
:10186000B0F5A06FF1D12948006800F4003010B144
:101870000120009001E0002000900098012843D151
:101880002348006840F010002149086008460068BD
:1018900020F0030008600846006840F0020008607D
:1018A0001A48406819494860084640684860084638
:1018B000406840F4806048600846406820F47C102E
:1018C00048600846406840F4E810486008460068F0
:1018D00040F08070086000BF0C48006800F00070A5
:1018E0000028F9D00948406820F003000749486003
:1018F0000846406840F00200486000BF0348406866
:1019000000F00C000828F9D10CBD000000100240C6
:10191000002002407047000010B51348006840F0F6
:1019200001001149086008464068104908400E4906
:101930004860084600680E4908400B4908600846A0
:10194000006820F4802008600846406820F4FE000B
:1019500048604FF41F008860FFF767FF4FF000609A
:101960000449086010BD0000001002400000FFF8AC
:10197000FFFFF6FE08ED00E07047704770477047C4
:10198000704770477047704770477047704770479F
:1019900070477047704770477047000000B585B0CA
:1019A00001210520FFF7AAFD01218803FFF7A6FD0D
:1019B0001F4800F0DDF84FF40070ADF8100018205B
:1019C0008DF8130003208DF8120004A91948FFF7C1
:1019D00085FC4FF48060ADF8100048208DF81300AE
:1019E00004A91448FFF77AFC4FF4E130009000207E
:1019F000ADF80400ADF80600ADF80800ADF80C0035
:101A00000C20ADF80A006946094800F04FF90122A0
:101A100040F22551064800F023F90121044800F066
:101A20009BF84021024800F08EF805B000BD000090
:101A300000380140000801407047000000B585B043
:101A400001214804FFF73AFD01210520FFF756FD6B
:101A50000420ADF8100018208DF8130003208DF835
:101A6000120004A91748FFF739FC0820ADF8100050
:101A700048208DF8130004A91248FFF72FFC4FF4FB
:101A8000E13000900020ADF80400ADF80600ADF89C
:101A90000800ADF80C000C20ADF80A0069460A48B1
:101AA00000F004F9012240F22551074800F0D8F86F
:101AB0000121054800F050F84021034800F043F8A8
:101AC00005B000BD000801400044004010B540F2E0
:101AD0002551174800F09AF838B3154800F052F92C
:101AE0001449154A127888541348007820B90846DA
:101AF0000078552800D010BD0F480078401C0E49D2
:101B00000870084600780B280FD10C4809490A686C
:101B100002604A6842600A890281897A81720020E3
:101B20000549087001200649087000BFE3E700007E
:101B3000004400405E000020040000204800002017
:101B400005000020704701F40072B2F5007F00D15B
:101B500000BFCA430280704721B1828942F400521B
:101B6000828104E082894DF6FF731A4082817047BA
:101B700010B504462048844209D101218803FFF7AB
:101B8000CDFC00214FF48040FFF7C8FC32E01B4839
:101B9000844209D101214804FFF7A0FC00214FF441
:101BA0000030FFF79BFC25E01548844209D1012154
:101BB0008804FFF793FC00214FF48020FFF78EFC90
:101BC00018E01048844209D10121C804FFF786FCBF
:101BD00000214FF40020FFF781FC0BE00A4884420B
:101BE00008D101210805FFF779FC00214FF480108E
:101BF000FFF774FC10BD00000038014000440040B5
:101C000000480040004C00400050004070B50246C3
:101C1000002400230025002040F66A16B14200D1BE
:101C200000BFC1F3421501F01F03012606FA03F3BA
:101C3000012D02D19689334006E0022D02D1168A89
:101C4000334001E0968A33400C12012606FA04F470
:101C50001688344013B10CB1012000E0002070BDA3
:101C6000F0B50346002400260025002040F66A1740
:101C7000B94200D100BF1846C1F3421401F01F065B
:101C8000012707FA06F5012C01D10C3004E0022CE3
:101C900001D1103000E014301AB107682F430760FB
:101CA00002E00768AF430760F0BD00002DE9F04790
:101CB00086B005460E460024A24600BFA146002776
:101CC000B08900B100BF2F462C8A4CF6FF7004404B
:101CD000F08804432C82AC894EF6F3100440B0889F
:101CE00031890843718908430443AC81AC8A4FF6BB
:101CF000FF400440B0890443AC8201A8FFF776FCA2
:101D00001F48874202D1DDF810A001E0DDF80CA0E9
:101D1000A88900F4004040B10AEBCA0000EB0A10A9
:101D200031684900B0FBF1F807E00AEBCA0000EBAC
:101D30000A1031688900B0FBF1F86420B8FBF0F0BC
:101D400004012009642101FB1089A88900F40040E6
:101D500040B1322000EBC900B0FBF1F000F0070009
:101D6000044308E0322000EB09106421B0FBF1F0DD
:101D700000F00F0004432C8106B0BDE8F08700009E
:101D80000038014001468888C0F30800704770475A
:101D900000BFFEE77047490050EAC12018BF042089
:101DA0004A0D18BF40F0010040F2FF72B2EB515FE4
:101DB00008BF40F00200012808BF052070473038F6
:101DC0000A2801D20120704700207047014600BF59
:101DD000704700004FF0E021096921F004014FF045
:101DE000E0221161C21700EB5272C2F3C702074B27
:101DF0001A701946097801EB4102C2EBC1114FF686
:101E0000FF7202EAC101024A118070471C000020E3
:101E10001E00002001460D4A12884A434FF0E0237D
:101E20005A6100229A6101221A6100BF4FF0E0223C
:101E3000106900F001021AB100F48032002AF5D0D6
:101E400000224FF0E0231A619A6170471E000020C3
:101E500000BF054A128802F04002002AF9D0C2B23F
:101E6000014B1B1D1A8070470038014092B0FFF7EC
:101E700065FBFFF705FA4820FFF7ACFFFFF7C4FA50
:101E8000FFF78CFDFFF7DAFDC820FFF7C3FF81E104
:101E9000C148007800287BD0C04801680E91416895
:101EA0000F910189ADF84010807A8DF84200002032
:101EB000B9490870B9480078552869D1B7484078C1
:101EC000512804D0522864D053287DD1C4E09DF815
:101ED0003A109DF83B2041EA022108B200F0C6FB0F
:101EE00080460022AE4B00F069FA06460022AD4B58
:101EF00000F0D4FB044600F087F9AB4908609DF878
:101F00003C109DF83D2041EA022108B200F0AEFBF2
:101F100080460022A24B00F051FA06460022A14B57
:101F200000F0BCFB044600F06FF99F4948609DF843
:101F30003E109DF83F2041EA022108B200F096FBD6
:101F400080460022964B00F039FA06460022954B57
:101F500000F0A4FB044600F057F9934988609DF80F
:101F600040109DF8412041EA022108B200F07EFBBA
:101F7000804600228D4B00F021FA064600228C4B51
:101F800000F074F9044600F03FF98A490860C5E0A2
:101F9000FDE09DF83A109DF83B2041EA022108B28D
:101FA00000F064FB064600227D4B00F007FA8046F5
:101FB0000022814B00F072FB044600F025F97F49B6
:101FC00008609DF83C1000E0A7E09DF83D2041EA44
:101FD000022108B200F04AFB80460022704B00F05C
:101FE000EDF906460022744B00F058FB044600F061
:101FF0000BF9724948609DF83E109DF83F2041EA78
:10200000022108B200F032FB06460022644B00F0C9
:10201000D5F904460022684B00F040FB804600F0F2
:10202000F3F8664988609DF840109DF8412041EA28
:10203000022108B200F01AFB804600225B4B00F040
:10204000BDF9064600225A4B00F010F9044600F094
:10205000DBF85849086061E09DF83A109DF83B2094
:1020600041EA022108B200F001FB064600224C4B77
:1020700000F0A4F904460022514B00F00FFB80460B
:1020800000F0C2F84F4908609DF83C109DF83D20D3
:1020900041EA022108B200F0E9FA80460022404BF2
:1020A00000F08CF906460022454B00F0F7FA044692
:1020B00000F0AAF8434948609DF83E109DF83F2083
:1020C00041EA022108B200F0D1FA06460022344B60
:1020D00000F074F980460022394B00F0DFFA044624
:1020E00000F092F8374988609DF840109DF8412033
:1020F00041EA022108B200F0B9FA804600222B4BD7
:1021000000F05CF906460022294B00F0AFF80446C7
:1021100000F07AF82749086000E000BF00BF2749B7
:10212000886800F0A3FC04460D462449486800F086
:102130009DFC06460F462149086800F097FC804642
:1021400089462049886800F091FC82468B461D49EB
:10215000486800F08BFCCDE90C011A49086800F0D2
:1021600085FCCDE902ABCDE90489CDE90667CDE96F
:102170000845CDE90A01DDE90C01CDE9000112486D
:10218000DDE90A23FEF750F810A0FEF74DF83220E3
:10219000FFF740FE7CE6000005000020480000201C
:1021A0000000E04000003040240000200040754066
:1021B000002042400000002000409F4030000020EE
:1021C000008066403C000020F02B0008CFC2D2BB4C
:1021D000D7E9CAFDBEDD200D0A00000010B50029B8
:1021E0000AD00878002807D005487844FEF718FC84
:1021F000002801D0002010BD0248784410BD000026
:10220000820A00007A0A000021F00042A2F1605226
:10221000B2F5801F01F0004328BFD2F17F6C0BD9CB
:102220005FEA001C43EAC20242EB507018BF7047DD
:1022300028BF20F001007047B2F5801FBCBF1846D0
:1022400070474FEA410C1CF5001F02D2084600F00F
:102250007EBC70B500F0CCFA00000089FFF7F6BF35
:102260004FF00040A0F580007047000010B591EAE3
:10227000030F48BF83F0004300F11683841A71EB0B
:10228000030C05D2121943EB0C03001B61EB0C018C
:10229000DFF824E14FEA1154A4EB135C1EEA430F6C
:1022A00018BF9EEA445F73D023EA0E03DCF1200ED0
:1022B00021EA045143F4801332D322FA0CFE10EBCE
:1022C0000E0023FA0CFE41EB0E01CCF1200E03FAB6
:1022D0000EFE10EB0E0051F10001B1F5801FCCF1A4
:1022E000200E32D201EB045112FA0EF2BDE810407A
:1022F00058BF7047401C38BF5FEA420218BF7047A2
:10230000002814BF20F0010041F100014FEA410311
:1023100013F5001F38BF7047A1F1C04100F0B6BAF5
:10232000012A43EB0302ACF1200CDCF11F0E32BF9B
:102330004FF0000E23FA0CF310EB030041EB0451B5
:10234000B4EB115FD0D0A1EB045101F58011490825
:102350005FEA300001EB04510ED350F1000038BFAA
:1023600012FA0EFE08D1BDE81040C9E7401C38BF84
:102370005FEA4202CAD1C3E7BDE810404FEA410319
:1023800013F5001F38BF7047A1F1C04100F07EBABD
:102390009EEA445F08D011EA5E0FBDE8104004BF1A
:1023A00001F0004100207047BDE8104070B500F01A
:1023B0001FFA00BF64FBBE3E0000E0FF2DE9C041F4
:1023C00030B4DFF8A0C23CEA111418BF3CEA131481
:1023D00000F0EC8081EA03051CEA111444EAD5748C
:1023E00018BF1CEA131500F0C780A4EB05044FF0DA
:1023F000004545EAC12145EAC32341EA505143EA79
:10240000525304F17F74994204F500344FEAC0201E
:102410004FEAC22208BF904200F09C804FEA136549
:102420000FF24016765D4FEA134506FB05F7C7F13C
:10243000807706FB07F74FEAD737A7FB036876429A
:10244000C8F58038A7FB06CE38BFA8F1010807FB06
:1024500008E64FF0000EA6FB028CE6FB03CEDCF193
:10246000000CCEF1004E38BFAEF1010EA6FB0C58A9
:102470004FF000074FF00005E6FB0E87A1FB08C6F2
:10248000A0FB07CE16EB0E0645F10005E1FB076544
:1024900015F1E04E7EBFA4F580345FEA46066D413B
:1024A00016F1800745F100054FEA17274FEA066647
:1024B00047EA0567A6F1DE46B6F1805F4FEA1525CB
:1024C0001FD9384624F0010C05EBC471BCF1FE6F36
:1024D00001EB0C1102D8F0BCBDE8008124425CBFC6
:1024E00001F5801E9EEAC47F02D4F0BCBDE80081E5
:1024F000244238D4F0BCA1F1C041BDE8004100F055
:10250000C5B94FEAD22242EA43524FEAD323A7FB8E
:1025100002864FEAD02040EA415007FB03661EEADC
:102520000E0F4FEAD12105FB026658BFA6EB0056FD
:10253000B6EB00564FEA520E4EEAC37E18EB0E0E73
:1025400056EB530EBDD518EB02085E417F1C55F1CA
:102550000005B6E74FF480154FF000074FF0000676
:102560004FF00008ADE7F0BC4FF0000001F1C041B2
:1025700001F00041BDE8008111EA0C1F0CEA1315BF
:1025800000D00CE013EA0C1F00F025804FF0000093
:10259000F0BC81EA030101F00041BDE80081F0BC1C
:1025A000BDE8004181EA030100F070B9F0BCBDE86C
:1025B000004170B500F01CF9097EFC3E00F007B840
:1025C00081EA03014FF0000001F00041704781EA09
:1025D000030100F05BB9F0BCBDE800414FF0000022
:1025E00021497047FFFDFBF9F7F5F4F2F0EEEDEB52
:1025F000E9E8E6E4E3E1E0DEDDDBDAD8D7D5D4D301
:10260000D1D0CFCDCCCBCAC8C7C6C5C4C2C1C0BF4C
:10261000BEBDBCBBBAB9B8B7B6B5B4B3B2B1B0AF52
:10262000AEADACABAAA9A8A8A7A6A5A4A3A3A2A136
:10263000A09F9F9E9D9C9C9B9A99999897979695F1
:1026400095949393929191908F8F8E8E8D8C8C8B8D
:102650008B8A898988888787868585848483838215
:10266000828181800000FF070000F87F10F00042A7
:1026700048BF4042B0FA80F310FA03F10AD0C3F128
:102680001D0303F580634FEA415002EB035202EB56
:10269000D12170474FF0000070470000DFF848C1BB
:1026A00070B51CEA111E1EBF1CEA13159EEA0C0F22
:1026B00095EA0C0F00F06F8081EA030423EA4C13C3
:1026C0004EEAD47E21EA4C1141F4801143F4801388
:1026D000AE44A1FB024CA0FB0365AEF17F7E361930
:1026E00055EB0C05A1FB034C4CF10003A0FB021CB5
:1026F00016EB0C06654153F10003094218BF46F082
:10270000010613F4007F0BD14FEA03314FEA053085
:10271000340341EA155140EA16506FF003020AE013
:102720004FEAC3214FEAC520F40241EA555140EA7D
:1027300056506FF0020202EB2E4201EB025585EA81
:10274000CE710AD05FEA440C18BF24F0004450F167
:10275000000041F1000120EAD47040F2FE7C6245A5
:1027600000D270BDA84214BF4FF080444FF04044E7
:10277000002E08BF0024BEF1806FA8BFA1F1C041A8
:10278000BDE8704080F282804FF0000001F1C0414E
:1027900001F0004170479EEA0C0F0CEA131518BFB8
:1027A00095EA0C0F06D04FF0000081EA030E0EF000
:1027B000004170BD00F01CF88900013E00F007B830
:1027C00000F009B84FEA430C5FEA5C5C08D081EA8C
:1027D000030100F05BB84FEA410C5FEA5C5CF6D1A4
:1027E0004FF00000014970470000FF070000F87F2C
:1027F0000EF1020E2EF0030E5EF8046B364205D485
:10280000012A43EB030515F5001F12D8012841EBFF
:10281000010C1CF5001F0CD80ED14FEAD17C15F528
:10282000001F0CEB4C0C0CF1020C08BF4CEBD37CE2
:1028300004E04FF0080C01E04FEAD37C0CEB4C05B0
:1028400026FA05F606F00706B6F1040C06D20EEBE2
:10285000860CBDE870404CF0010C6047DFE80CF0DE
:10286000090B02024FF000414FF00000A1F50021DA
:1028700070BD19461046012851EB010418BFD4F56C
:10288000001484BF002001F0004170BD0808A0F5CD
:1028900000114FEA3101704710B591EA030F48BFAC
:1028A00083F000433FF5EAAC841A71EB030C07D2C6
:1028B00012198CF0004C43EB0C03001B61EB0C0174
:1028C000DFF8A4E14FEA1154A4EB135C1EEA430FB6
:1028D00018BF9EEA445F00F0B08023EA6E035242C4
:1028E00021EA0451C3EB6E0338BF5B1EDCF1200EFE
:1028F00025D322FA0CFE10EB0E0043FA0CFE41EB3E
:102900000E01CCF1200E03FA0EFE10EB0E0051F179
:102910000001CCF1200E29D412FA0EF201EB045181
:10292000BDE8104058BF7047401C1CBFB2F1004FBB
:10293000704700280CBF491C20F00100704712EBC3
:10294000020E43EB030218BF4FF0010E4EEA4202A3
:10295000ACF1200CDCF11E0E54D943FA0CFE10EB46
:102960000E0051F1FF31CCF11E0ED5D50EF1010E46
:1029700012FA0EFE404141EB010101EB445C5FEABB
:102980005C5C10D910EBDE7001EB045138BFBEF176
:10299000004FBDE8104018BF704700280CBF491C0D
:1029A00020F00100704730D24FEAD42C11F500110D
:1029B00024F400641BD0B1FA81F20B3AA41AA41ECD
:1029C000D2F12003914030FA03F31943904001EB18
:1029D000CC71002C01EB0451BDE81040A8BF70473A
:1029E00001F1C0414FF0000001F000417047B0FA22
:1029F00080F310FA03F100D110BDE41A173C48052A
:102A0000C90AE4E701EB045110BD491001EB045180
:102A1000BDE810404FEA300002E04FF0000170477F
:102A20004A0008BF0042F8D0B2F5001F28BF704727
:102A300001F000414FF0000070479EEA445F07D06C
:102A400011EA5E0FBDE8104004BF0021002070476E
:102A5000BDE8104070B5FFF7CBFE00BF40DFF63E8B
:102A600083F00041104670470000E0FF43004FEA4A
:102A7000D30C4FEA3C0C43401FBF40070CF16051A0
:102A800013F0FE4F70471CF0006F03D100200CF0D4
:102A9000004170470CF0004343EA507010B540EA23
:102AA000CC0000F00EF800BF000000924FEA0001D9
:102AB000FFF7ECBE4FF000414FF00000A1F5002100
:102AC00070470EF1020E2EF0030E5EF8044B244206
:102AD00004D44FEA4102B2F17F4F11D84FEA4003CC
:102AE000B3F17F4F0CD80ED14FEAD07CB2F17F4FBB
:102AF0000CEB4C0C0CF1020C08BF4CEBD17C04E04D
:102B00004FF0080C01E04FEAD17C0CEB4C0324FAA7
:102B100003F404F00704B4F1040C06D20EEB840CA9
:102B2000BDE810404CF0010C6047DFE80CF00708EE
:102B300002024FF00040A0F5800010BD08464200A0
:102B400018BFD2F1807288BF00F0004010BDFF2195
:102B500041EAD050C0057047FDF7D4BC02400000E8
:102B6000000000A00000000005400000000000C8B8
:102B7000000000000C4000000000409C000000002D
:102B8000194000000020BCBE0000000034400000DE
:102B9000BFC91B8E00000004B5400000504BCFD0D1
:102BA0006607E2CF010000006C4100003E8251AA9E
:102BB000DFEEA73401000000D9420000DCB5A0E23E
:102BC0003A301F97FFFFFFFFB4450000FD25A0C866
:102BD000E9A3C14FFFFFFFFFFF3F0000000000809F
:102BE00000000000FF3F0000000000800000000027
:102BF00058BDC7B6C8A3BA252E32660D0A20205983
:102C0000BDC7B6C8A3BA252E32660D0A20205ABD0C
:102C1000C7B6C8A3BA252E32660D0A202058CBD9D4
:102C2000B6C8A3BA252E32660D0A202059CBD9B6D4
:102C3000C8A3BA252E32660D0A20205ACBD9B6C8B1
:102C4000A3BA252E32660D0A00000000882C000869
:102C500000000020240000006C010008AC2C0008DB
:102C600024000020AC060000880100081C000000C1
:102C700043000000F8FFFFFF0C0000000E00000002
:102C80000F0000002E000000000000000000000007
:102C90000000000001020304010203040607080902
:0C2CA00002040608000000000000000014
:0400000508000131BD
:00000001FF
